{
  "_format": "hh-sol-artifact-1",
  "contractName": "ProfileMeme",
  "sourceName": "contracts/ProfileMeme.sol",
  "abi": [
    {
      "inputs": [
        {
          "internalType": "string",
          "name": "baseUri",
          "type": "string"
        }
      ],
      "stateMutability": "nonpayable",
      "type": "constructor"
    },
    {
      "inputs": [
        {
          "internalType": "address",
          "name": "sender",
          "type": "address"
        },
        {
          "internalType": "uint256",
          "name": "tokenId",
          "type": "uint256"
        },
        {
          "internalType": "address",
          "name": "owner",
          "type": "address"
        }
      ],
      "name": "ERC721IncorrectOwner",
      "type": "error"
    },
    {
      "inputs": [
        {
          "internalType": "address",
          "name": "operator",
          "type": "address"
        },
        {
          "internalType": "uint256",
          "name": "tokenId",
          "type": "uint256"
        }
      ],
      "name": "ERC721InsufficientApproval",
      "type": "error"
    },
    {
      "inputs": [
        {
          "internalType": "address",
          "name": "approver",
          "type": "address"
        }
      ],
      "name": "ERC721InvalidApprover",
      "type": "error"
    },
    {
      "inputs": [
        {
          "internalType": "address",
          "name": "operator",
          "type": "address"
        }
      ],
      "name": "ERC721InvalidOperator",
      "type": "error"
    },
    {
      "inputs": [
        {
          "internalType": "address",
          "name": "owner",
          "type": "address"
        }
      ],
      "name": "ERC721InvalidOwner",
      "type": "error"
    },
    {
      "inputs": [
        {
          "internalType": "address",
          "name": "receiver",
          "type": "address"
        }
      ],
      "name": "ERC721InvalidReceiver",
      "type": "error"
    },
    {
      "inputs": [
        {
          "internalType": "address",
          "name": "sender",
          "type": "address"
        }
      ],
      "name": "ERC721InvalidSender",
      "type": "error"
    },
    {
      "inputs": [
        {
          "internalType": "uint256",
          "name": "tokenId",
          "type": "uint256"
        }
      ],
      "name": "ERC721NonexistentToken",
      "type": "error"
    },
    {
      "inputs": [
        {
          "internalType": "address",
          "name": "owner",
          "type": "address"
        }
      ],
      "name": "OwnableInvalidOwner",
      "type": "error"
    },
    {
      "inputs": [
        {
          "internalType": "address",
          "name": "account",
          "type": "address"
        }
      ],
      "name": "OwnableUnauthorizedAccount",
      "type": "error"
    },
    {
      "anonymous": false,
      "inputs": [
        {
          "indexed": true,
          "internalType": "address",
          "name": "owner",
          "type": "address"
        },
        {
          "indexed": true,
          "internalType": "address",
          "name": "approved",
          "type": "address"
        },
        {
          "indexed": true,
          "internalType": "uint256",
          "name": "tokenId",
          "type": "uint256"
        }
      ],
      "name": "Approval",
      "type": "event"
    },
    {
      "anonymous": false,
      "inputs": [
        {
          "indexed": true,
          "internalType": "address",
          "name": "owner",
          "type": "address"
        },
        {
          "indexed": true,
          "internalType": "address",
          "name": "operator",
          "type": "address"
        },
        {
          "indexed": false,
          "internalType": "bool",
          "name": "approved",
          "type": "bool"
        }
      ],
      "name": "ApprovalForAll",
      "type": "event"
    },
    {
      "anonymous": false,
      "inputs": [
        {
          "indexed": false,
          "internalType": "uint256",
          "name": "_fromTokenId",
          "type": "uint256"
        },
        {
          "indexed": false,
          "internalType": "uint256",
          "name": "_toTokenId",
          "type": "uint256"
        }
      ],
      "name": "BatchMetadataUpdate",
      "type": "event"
    },
    {
      "anonymous": false,
      "inputs": [
        {
          "indexed": false,
          "internalType": "uint256",
          "name": "_tokenId",
          "type": "uint256"
        }
      ],
      "name": "MetadataUpdate",
      "type": "event"
    },
    {
      "anonymous": false,
      "inputs": [
        {
          "indexed": true,
          "internalType": "address",
          "name": "previousOwner",
          "type": "address"
        },
        {
          "indexed": true,
          "internalType": "address",
          "name": "newOwner",
          "type": "address"
        }
      ],
      "name": "OwnershipTransferred",
      "type": "event"
    },
    {
      "anonymous": false,
      "inputs": [
        {
          "indexed": true,
          "internalType": "address",
          "name": "from",
          "type": "address"
        },
        {
          "indexed": true,
          "internalType": "address",
          "name": "to",
          "type": "address"
        },
        {
          "indexed": true,
          "internalType": "uint256",
          "name": "tokenId",
          "type": "uint256"
        }
      ],
      "name": "Transfer",
      "type": "event"
    },
    {
      "inputs": [
        {
          "internalType": "address",
          "name": "to",
          "type": "address"
        },
        {
          "internalType": "uint256",
          "name": "tokenId",
          "type": "uint256"
        }
      ],
      "name": "approve",
      "outputs": [],
      "stateMutability": "nonpayable",
      "type": "function"
    },
    {
      "inputs": [
        {
          "internalType": "address",
          "name": "owner",
          "type": "address"
        }
      ],
      "name": "balanceOf",
      "outputs": [
        {
          "internalType": "uint256",
          "name": "",
          "type": "uint256"
        }
      ],
      "stateMutability": "view",
      "type": "function"
    },
    {
      "inputs": [
        {
          "internalType": "uint256",
          "name": "tokenId",
          "type": "uint256"
        }
      ],
      "name": "burn",
      "outputs": [],
      "stateMutability": "nonpayable",
      "type": "function"
    },
    {
      "inputs": [
        {
          "internalType": "uint256",
          "name": "tokenId",
          "type": "uint256"
        }
      ],
      "name": "getApproved",
      "outputs": [
        {
          "internalType": "address",
          "name": "",
          "type": "address"
        }
      ],
      "stateMutability": "view",
      "type": "function"
    },
    {
      "inputs": [
        {
          "internalType": "address",
          "name": "owner",
          "type": "address"
        },
        {
          "internalType": "address",
          "name": "operator",
          "type": "address"
        }
      ],
      "name": "isApprovedForAll",
      "outputs": [
        {
          "internalType": "bool",
          "name": "",
          "type": "bool"
        }
      ],
      "stateMutability": "view",
      "type": "function"
    },
    {
      "inputs": [],
      "name": "name",
      "outputs": [
        {
          "internalType": "string",
          "name": "",
          "type": "string"
        }
      ],
      "stateMutability": "view",
      "type": "function"
    },
    {
      "inputs": [],
      "name": "owner",
      "outputs": [
        {
          "internalType": "address",
          "name": "",
          "type": "address"
        }
      ],
      "stateMutability": "view",
      "type": "function"
    },
    {
      "inputs": [
        {
          "internalType": "uint256",
          "name": "tokenId",
          "type": "uint256"
        }
      ],
      "name": "ownerOf",
      "outputs": [
        {
          "internalType": "address",
          "name": "",
          "type": "address"
        }
      ],
      "stateMutability": "view",
      "type": "function"
    },
    {
      "inputs": [],
      "name": "renounceOwnership",
      "outputs": [],
      "stateMutability": "nonpayable",
      "type": "function"
    },
    {
      "inputs": [
        {
          "internalType": "string",
          "name": "uri",
          "type": "string"
        }
      ],
      "name": "safeMint",
      "outputs": [],
      "stateMutability": "nonpayable",
      "type": "function"
    },
    {
      "inputs": [
        {
          "internalType": "address",
          "name": "from",
          "type": "address"
        },
        {
          "internalType": "address",
          "name": "to",
          "type": "address"
        },
        {
          "internalType": "uint256",
          "name": "tokenId",
          "type": "uint256"
        }
      ],
      "name": "safeTransferFrom",
      "outputs": [],
      "stateMutability": "nonpayable",
      "type": "function"
    },
    {
      "inputs": [
        {
          "internalType": "address",
          "name": "from",
          "type": "address"
        },
        {
          "internalType": "address",
          "name": "to",
          "type": "address"
        },
        {
          "internalType": "uint256",
          "name": "tokenId",
          "type": "uint256"
        },
        {
          "internalType": "bytes",
          "name": "data",
          "type": "bytes"
        }
      ],
      "name": "safeTransferFrom",
      "outputs": [],
      "stateMutability": "nonpayable",
      "type": "function"
    },
    {
      "inputs": [
        {
          "internalType": "address",
          "name": "operator",
          "type": "address"
        },
        {
          "internalType": "bool",
          "name": "approved",
          "type": "bool"
        }
      ],
      "name": "setApprovalForAll",
      "outputs": [],
      "stateMutability": "nonpayable",
      "type": "function"
    },
    {
      "inputs": [
        {
          "internalType": "string",
          "name": "baseUri",
          "type": "string"
        }
      ],
      "name": "setBaseUri",
      "outputs": [],
      "stateMutability": "nonpayable",
      "type": "function"
    },
    {
      "inputs": [
        {
          "internalType": "bytes4",
          "name": "interfaceId",
          "type": "bytes4"
        }
      ],
      "name": "supportsInterface",
      "outputs": [
        {
          "internalType": "bool",
          "name": "",
          "type": "bool"
        }
      ],
      "stateMutability": "view",
      "type": "function"
    },
    {
      "inputs": [],
      "name": "symbol",
      "outputs": [
        {
          "internalType": "string",
          "name": "",
          "type": "string"
        }
      ],
      "stateMutability": "view",
      "type": "function"
    },
    {
      "inputs": [
        {
          "internalType": "uint256",
          "name": "tokenId",
          "type": "uint256"
        }
      ],
      "name": "tokenURI",
      "outputs": [
        {
          "internalType": "string",
          "name": "",
          "type": "string"
        }
      ],
      "stateMutability": "view",
      "type": "function"
    },
    {
      "inputs": [
        {
          "internalType": "address",
          "name": "from",
          "type": "address"
        },
        {
          "internalType": "address",
          "name": "to",
          "type": "address"
        },
        {
          "internalType": "uint256",
          "name": "tokenId",
          "type": "uint256"
        }
      ],
      "name": "transferFrom",
      "outputs": [],
      "stateMutability": "nonpayable",
      "type": "function"
    },
    {
      "inputs": [
        {
          "internalType": "address",
          "name": "newOwner",
          "type": "address"
        }
      ],
      "name": "transferOwnership",
      "outputs": [],
      "stateMutability": "nonpayable",
      "type": "function"
    }
  ],
  "bytecode": "0x60806040523480156200001157600080fd5b5060405162003399380380620033998339818101604052810190620000379190620003c3565b336040518060400160405280600c81526020017f50726f66696c65204d656d6500000000000000000000000000000000000000008152506040518060400160405280600381526020017f504d4d00000000000000000000000000000000000000000000000000000000008152508160009081620000b591906200065f565b508060019081620000c791906200065f565b505050600073ffffffffffffffffffffffffffffffffffffffff168173ffffffffffffffffffffffffffffffffffffffff16036200013f5760006040517f1e4fbdf70000000000000000000000000000000000000000000000000000000081526004016200013691906200078b565b60405180910390fd5b62000150816200016a60201b60201c565b5080600990816200016291906200065f565b5050620007a8565b6000600760009054906101000a900473ffffffffffffffffffffffffffffffffffffffff16905081600760006101000a81548173ffffffffffffffffffffffffffffffffffffffff021916908373ffffffffffffffffffffffffffffffffffffffff1602179055508173ffffffffffffffffffffffffffffffffffffffff168173ffffffffffffffffffffffffffffffffffffffff167f8be0079c531659141344cd1fd0a4f28419497f9722a3daafe3b4186f6b6457e060405160405180910390a35050565b6000604051905090565b600080fd5b600080fd5b600080fd5b600080fd5b6000601f19601f8301169050919050565b7f4e487b7100000000000000000000000000000000000000000000000000000000600052604160045260246000fd5b62000299826200024e565b810181811067ffffffffffffffff82111715620002bb57620002ba6200025f565b5b80604052505050565b6000620002d062000230565b9050620002de82826200028e565b919050565b600067ffffffffffffffff8211156200030157620003006200025f565b5b6200030c826200024e565b9050602081019050919050565b60005b83811015620003395780820151818401526020810190506200031c565b60008484015250505050565b60006200035c6200035684620002e3565b620002c4565b9050828152602081018484840111156200037b576200037a62000249565b5b6200038884828562000319565b509392505050565b600082601f830112620003a857620003a762000244565b5b8151620003ba84826020860162000345565b91505092915050565b600060208284031215620003dc57620003db6200023a565b5b600082015167ffffffffffffffff811115620003fd57620003fc6200023f565b5b6200040b8482850162000390565b91505092915050565b600081519050919050565b7f4e487b7100000000000000000000000000000000000000000000000000000000600052602260045260246000fd5b600060028204905060018216806200046757607f821691505b6020821081036200047d576200047c6200041f565b5b50919050565b60008190508160005260206000209050919050565b60006020601f8301049050919050565b600082821b905092915050565b600060088302620004e77fffffffffffffffffffffffffffffffffffffffffffffffffffffffffffffffff82620004a8565b620004f38683620004a8565b95508019841693508086168417925050509392505050565b6000819050919050565b6000819050919050565b6000620005406200053a62000534846200050b565b62000515565b6200050b565b9050919050565b6000819050919050565b6200055c836200051f565b620005746200056b8262000547565b848454620004b5565b825550505050565b600090565b6200058b6200057c565b6200059881848462000551565b505050565b5b81811015620005c057620005b460008262000581565b6001810190506200059e565b5050565b601f8211156200060f57620005d98162000483565b620005e48462000498565b81016020851015620005f4578190505b6200060c620006038562000498565b8301826200059d565b50505b505050565b600082821c905092915050565b6000620006346000198460080262000614565b1980831691505092915050565b60006200064f838362000621565b9150826002028217905092915050565b6200066a8262000414565b67ffffffffffffffff8111156200068657620006856200025f565b5b6200069282546200044e565b6200069f828285620005c4565b600060209050601f831160018114620006d75760008415620006c2578287015190505b620006ce858262000641565b8655506200073e565b601f198416620006e78662000483565b60005b828110156200071157848901518255600182019150602085019450602081019050620006ea565b868310156200073157848901516200072d601f89168262000621565b8355505b6001600288020188555050505b505050505050565b600073ffffffffffffffffffffffffffffffffffffffff82169050919050565b6000620007738262000746565b9050919050565b620007858162000766565b82525050565b6000602082019050620007a260008301846200077a565b92915050565b612be180620007b86000396000f3fe608060405234801561001057600080fd5b50600436106101215760003560e01c806370a08231116100ad578063a22cb46511610071578063a22cb465146102f2578063b88d4fde1461030e578063c87b56dd1461032a578063e985e9c51461035a578063f2fde38b1461038a57610121565b806370a0823114610260578063715018a6146102905780638da5cb5b1461029a57806395d89b41146102b8578063a0bcfc7f146102d657610121565b806323b872dd116100f457806323b872dd146101c057806342842e0e146101dc57806342966c68146101f85780636352211e14610214578063695850fb1461024457610121565b806301ffc9a71461012657806306fdde0314610156578063081812fc14610174578063095ea7b3146101a4575b600080fd5b610140600480360381019061013b9190611d18565b6103a6565b60405161014d9190611d60565b60405180910390f35b61015e6103b8565b60405161016b9190611e0b565b60405180910390f35b61018e60048036038101906101899190611e63565b61044a565b60405161019b9190611ed1565b60405180910390f35b6101be60048036038101906101b99190611f18565b610466565b005b6101da60048036038101906101d59190611f58565b61047c565b005b6101f660048036038101906101f19190611f58565b61057e565b005b610212600480360381019061020d9190611e63565b61059e565b005b61022e60048036038101906102299190611e63565b6105b5565b60405161023b9190611ed1565b60405180910390f35b61025e600480360381019061025991906120e0565b6105c7565b005b61027a60048036038101906102759190612129565b610653565b6040516102879190612165565b60405180910390f35b61029861070d565b005b6102a2610721565b6040516102af9190611ed1565b60405180910390f35b6102c061074b565b6040516102cd9190611e0b565b60405180910390f35b6102f060048036038101906102eb91906120e0565b6107dd565b005b61030c600480360381019061030791906121ac565b6107f8565b005b6103286004803603810190610323919061228d565b61080e565b005b610344600480360381019061033f9190611e63565b61082b565b6040516103519190611e0b565b60405180910390f35b610374600480360381019061036f9190612310565b61083d565b6040516103819190611d60565b60405180910390f35b6103a4600480360381019061039f9190612129565b6108d1565b005b60006103b182610957565b9050919050565b6060600080546103c79061237f565b80601f01602080910402602001604051908101604052809291908181526020018280546103f39061237f565b80156104405780601f1061041557610100808354040283529160200191610440565b820191906000526020600020905b81548152906001019060200180831161042357829003601f168201915b5050505050905090565b6000610455826109b8565b5061045f82610a40565b9050919050565b6104788282610473610a7d565b610a85565b5050565b600073ffffffffffffffffffffffffffffffffffffffff168273ffffffffffffffffffffffffffffffffffffffff16036104ee5760006040517f64a0ae920000000000000000000000000000000000000000000000000000000081526004016104e59190611ed1565b60405180910390fd5b600061050283836104fd610a7d565b610a97565b90508373ffffffffffffffffffffffffffffffffffffffff168173ffffffffffffffffffffffffffffffffffffffff1614610578578382826040517f64283d7b00000000000000000000000000000000000000000000000000000000815260040161056f939291906123b0565b60405180910390fd5b50505050565b6105998383836040518060200160405280600081525061080e565b505050565b6105b16000826105ac610a7d565b610a97565b5050565b60006105c0826109b8565b9050919050565b6000600860008154809291906105dc90612416565b91905055905060006106196105f083610cb1565b6009856040516020016106059392919061263c565b604051602081830303815290604052610d7f565b60405160200161062991906126da565b60405160208183030381529060405290506106448282610ef1565b61064e3383610f4d565b505050565b60008073ffffffffffffffffffffffffffffffffffffffff168273ffffffffffffffffffffffffffffffffffffffff16036106c65760006040517f89c62b640000000000000000000000000000000000000000000000000000000081526004016106bd9190611ed1565b60405180910390fd5b600360008373ffffffffffffffffffffffffffffffffffffffff1673ffffffffffffffffffffffffffffffffffffffff168152602001908152602001600020549050919050565b610715610f6b565b61071f6000610ff2565b565b6000600760009054906101000a900473ffffffffffffffffffffffffffffffffffffffff16905090565b60606001805461075a9061237f565b80601f01602080910402602001604051908101604052809291908181526020018280546107869061237f565b80156107d35780601f106107a8576101008083540402835291602001916107d3565b820191906000526020600020905b8154815290600101906020018083116107b657829003601f168201915b5050505050905090565b6107e5610f6b565b80600990816107f49190612893565b5050565b61080a610803610a7d565b83836110b8565b5050565b61081984848461047c565b61082584848484611227565b50505050565b6060610836826113de565b9050919050565b6000600560008473ffffffffffffffffffffffffffffffffffffffff1673ffffffffffffffffffffffffffffffffffffffff16815260200190815260200160002060008373ffffffffffffffffffffffffffffffffffffffff1673ffffffffffffffffffffffffffffffffffffffff16815260200190815260200160002060009054906101000a900460ff16905092915050565b6108d9610f6b565b600073ffffffffffffffffffffffffffffffffffffffff168173ffffffffffffffffffffffffffffffffffffffff160361094b5760006040517f1e4fbdf70000000000000000000000000000000000000000000000000000000081526004016109429190611ed1565b60405180910390fd5b61095481610ff2565b50565b6000634906490660e01b7bffffffffffffffffffffffffffffffffffffffffffffffffffffffff1916827bffffffffffffffffffffffffffffffffffffffffffffffffffffffff191614806109b157506109b0826114f1565b5b9050919050565b6000806109c4836115d3565b9050600073ffffffffffffffffffffffffffffffffffffffff168173ffffffffffffffffffffffffffffffffffffffff1603610a3757826040517f7e273289000000000000000000000000000000000000000000000000000000008152600401610a2e9190612165565b60405180910390fd5b80915050919050565b60006004600083815260200190815260200160002060009054906101000a900473ffffffffffffffffffffffffffffffffffffffff169050919050565b600033905090565b610a928383836001611610565b505050565b600080610aa3846115d3565b9050600073ffffffffffffffffffffffffffffffffffffffff168373ffffffffffffffffffffffffffffffffffffffff1614610ae557610ae48184866117d5565b5b600073ffffffffffffffffffffffffffffffffffffffff168173ffffffffffffffffffffffffffffffffffffffff1614610b7657610b27600085600080611610565b6001600360008373ffffffffffffffffffffffffffffffffffffffff1673ffffffffffffffffffffffffffffffffffffffff168152602001908152602001600020600082825403925050819055505b600073ffffffffffffffffffffffffffffffffffffffff168573ffffffffffffffffffffffffffffffffffffffff1614610bf9576001600360008773ffffffffffffffffffffffffffffffffffffffff1673ffffffffffffffffffffffffffffffffffffffff168152602001908152602001600020600082825401925050819055505b846002600086815260200190815260200160002060006101000a81548173ffffffffffffffffffffffffffffffffffffffff021916908373ffffffffffffffffffffffffffffffffffffffff160217905550838573ffffffffffffffffffffffffffffffffffffffff168273ffffffffffffffffffffffffffffffffffffffff167fddf252ad1be2c89b69c2b068fc378daa952ba7f163c4a11628f55a4df523b3ef60405160405180910390a4809150509392505050565b606060006001610cc084611899565b01905060008167ffffffffffffffff811115610cdf57610cde611fb5565b5b6040519080825280601f01601f191660200182016040528015610d115781602001600182028036833780820191505090505b509050600082602001820190505b600115610d74578080600190039150507f3031323334353637383961626364656600000000000000000000000000000000600a86061a8153600a8581610d6857610d67612965565b5b04945060008503610d1f575b819350505050919050565b60606000825103610da157604051806020016040528060008152509050610eec565b6000604051806060016040528060408152602001612b6c6040913990506000600360028551610dd09190612994565b610dda91906129c8565b6004610de691906129f9565b67ffffffffffffffff811115610dff57610dfe611fb5565b5b6040519080825280601f01601f191660200182016040528015610e315781602001600182028036833780820191505090505b50905060018201602082018586518701602081018051600082525b82841015610ea7576003840193508351603f8160121c168701518653600186019550603f81600c1c168701518653600186019550603f8160061c168701518653600186019550603f8116870151865360018601955050610e4c565b80825260038a510660018114610ec45760028114610ed757610edf565b603d6001870353603d6002870353610edf565b603d60018703535b5050505050505080925050505b919050565b80600660008481526020019081526020016000209081610f119190612893565b507ff8e1a15aba9398e019f0b49df1a4fde98ee17ae345cb5f6b5e2c27f5033e8ce782604051610f419190612165565b60405180910390a15050565b610f678282604051806020016040528060008152506119ec565b5050565b610f73610a7d565b73ffffffffffffffffffffffffffffffffffffffff16610f91610721565b73ffffffffffffffffffffffffffffffffffffffff1614610ff057610fb4610a7d565b6040517f118cdaa7000000000000000000000000000000000000000000000000000000008152600401610fe79190611ed1565b60405180910390fd5b565b6000600760009054906101000a900473ffffffffffffffffffffffffffffffffffffffff16905081600760006101000a81548173ffffffffffffffffffffffffffffffffffffffff021916908373ffffffffffffffffffffffffffffffffffffffff1602179055508173ffffffffffffffffffffffffffffffffffffffff168173ffffffffffffffffffffffffffffffffffffffff167f8be0079c531659141344cd1fd0a4f28419497f9722a3daafe3b4186f6b6457e060405160405180910390a35050565b600073ffffffffffffffffffffffffffffffffffffffff168273ffffffffffffffffffffffffffffffffffffffff160361112957816040517f5b08ba180000000000000000000000000000000000000000000000000000000081526004016111209190611ed1565b60405180910390fd5b80600560008573ffffffffffffffffffffffffffffffffffffffff1673ffffffffffffffffffffffffffffffffffffffff16815260200190815260200160002060008473ffffffffffffffffffffffffffffffffffffffff1673ffffffffffffffffffffffffffffffffffffffff16815260200190815260200160002060006101000a81548160ff0219169083151502179055508173ffffffffffffffffffffffffffffffffffffffff168373ffffffffffffffffffffffffffffffffffffffff167f17307eab39ab6107e8899845ad3d59bd9653f200f220920489ca2b5937696c318360405161121a9190611d60565b60405180910390a3505050565b60008373ffffffffffffffffffffffffffffffffffffffff163b11156113d8578273ffffffffffffffffffffffffffffffffffffffff1663150b7a0261126b610a7d565b8685856040518563ffffffff1660e01b815260040161128d9493929190612a90565b6020604051808303816000875af19250505080156112c957506040513d601f19601f820116820180604052508101906112c69190612af1565b60015b61134d573d80600081146112f9576040519150601f19603f3d011682016040523d82523d6000602084013e6112fe565b606091505b50600081510361134557836040517f64a0ae9200000000000000000000000000000000000000000000000000000000815260040161133c9190611ed1565b60405180910390fd5b805181602001fd5b63150b7a0260e01b7bffffffffffffffffffffffffffffffffffffffffffffffffffffffff1916817bffffffffffffffffffffffffffffffffffffffffffffffffffffffff1916146113d657836040517f64a0ae920000000000000000000000000000000000000000000000000000000081526004016113cd9190611ed1565b60405180910390fd5b505b50505050565b60606113e9826109b8565b50600060066000848152602001908152602001600020805461140a9061237f565b80601f01602080910402602001604051908101604052809291908181526020018280546114369061237f565b80156114835780601f1061145857610100808354040283529160200191611483565b820191906000526020600020905b81548152906001019060200180831161146657829003601f168201915b505050505090506000611494611a08565b905060008151036114a95781925050506114ec565b6000825111156114de5780826040516020016114c6929190612b1e565b604051602081830303815290604052925050506114ec565b6114e784611a1f565b925050505b919050565b60007f80ac58cd000000000000000000000000000000000000000000000000000000007bffffffffffffffffffffffffffffffffffffffffffffffffffffffff1916827bffffffffffffffffffffffffffffffffffffffffffffffffffffffff191614806115bc57507f5b5e139f000000000000000000000000000000000000000000000000000000007bffffffffffffffffffffffffffffffffffffffffffffffffffffffff1916827bffffffffffffffffffffffffffffffffffffffffffffffffffffffff1916145b806115cc57506115cb82611a88565b5b9050919050565b60006002600083815260200190815260200160002060009054906101000a900473ffffffffffffffffffffffffffffffffffffffff169050919050565b80806116495750600073ffffffffffffffffffffffffffffffffffffffff168273ffffffffffffffffffffffffffffffffffffffff1614155b1561177d576000611659846109b8565b9050600073ffffffffffffffffffffffffffffffffffffffff168373ffffffffffffffffffffffffffffffffffffffff16141580156116c457508273ffffffffffffffffffffffffffffffffffffffff168173ffffffffffffffffffffffffffffffffffffffff1614155b80156116d757506116d5818461083d565b155b1561171957826040517fa9fbf51f0000000000000000000000000000000000000000000000000000000081526004016117109190611ed1565b60405180910390fd5b811561177b57838573ffffffffffffffffffffffffffffffffffffffff168273ffffffffffffffffffffffffffffffffffffffff167f8c5be1e5ebec7d5bd14f71427d1e84f3dd0314c0f7b2291e5b200ac8c7c3b92560405160405180910390a45b505b836004600085815260200190815260200160002060006101000a81548173ffffffffffffffffffffffffffffffffffffffff021916908373ffffffffffffffffffffffffffffffffffffffff16021790555050505050565b6117e0838383611af2565b61189457600073ffffffffffffffffffffffffffffffffffffffff168373ffffffffffffffffffffffffffffffffffffffff160361185557806040517f7e27328900000000000000000000000000000000000000000000000000000000815260040161184c9190612165565b60405180910390fd5b81816040517f177e802f00000000000000000000000000000000000000000000000000000000815260040161188b929190612b42565b60405180910390fd5b505050565b600080600090507a184f03e93ff9f4daa797ed6e38ed64bf6a1f01000000000000000083106118f7577a184f03e93ff9f4daa797ed6e38ed64bf6a1f01000000000000000083816118ed576118ec612965565b5b0492506040810190505b6d04ee2d6d415b85acef81000000008310611934576d04ee2d6d415b85acef8100000000838161192a57611929612965565b5b0492506020810190505b662386f26fc10000831061196357662386f26fc10000838161195957611958612965565b5b0492506010810190505b6305f5e100831061198c576305f5e100838161198257611981612965565b5b0492506008810190505b61271083106119b15761271083816119a7576119a6612965565b5b0492506004810190505b606483106119d457606483816119ca576119c9612965565b5b0492506002810190505b600a83106119e3576001810190505b80915050919050565b6119f68383611bb3565b611a036000848484611227565b505050565b606060405180602001604052806000815250905090565b6060611a2a826109b8565b506000611a35611a08565b90506000815111611a555760405180602001604052806000815250611a80565b80611a5f84610cb1565b604051602001611a70929190612b1e565b6040516020818303038152906040525b915050919050565b60007f01ffc9a7000000000000000000000000000000000000000000000000000000007bffffffffffffffffffffffffffffffffffffffffffffffffffffffff1916827bffffffffffffffffffffffffffffffffffffffffffffffffffffffff1916149050919050565b60008073ffffffffffffffffffffffffffffffffffffffff168373ffffffffffffffffffffffffffffffffffffffff1614158015611baa57508273ffffffffffffffffffffffffffffffffffffffff168473ffffffffffffffffffffffffffffffffffffffff161480611b6b5750611b6a848461083d565b5b80611ba957508273ffffffffffffffffffffffffffffffffffffffff16611b9183610a40565b73ffffffffffffffffffffffffffffffffffffffff16145b5b90509392505050565b600073ffffffffffffffffffffffffffffffffffffffff168273ffffffffffffffffffffffffffffffffffffffff1603611c255760006040517f64a0ae92000000000000000000000000000000000000000000000000000000008152600401611c1c9190611ed1565b60405180910390fd5b6000611c3383836000610a97565b9050600073ffffffffffffffffffffffffffffffffffffffff168173ffffffffffffffffffffffffffffffffffffffff1614611ca75760006040517f73c6ac6e000000000000000000000000000000000000000000000000000000008152600401611c9e9190611ed1565b60405180910390fd5b505050565b6000604051905090565b600080fd5b600080fd5b60007fffffffff0000000000000000000000000000000000000000000000000000000082169050919050565b611cf581611cc0565b8114611d0057600080fd5b50565b600081359050611d1281611cec565b92915050565b600060208284031215611d2e57611d2d611cb6565b5b6000611d3c84828501611d03565b91505092915050565b60008115159050919050565b611d5a81611d45565b82525050565b6000602082019050611d756000830184611d51565b92915050565b600081519050919050565b600082825260208201905092915050565b60005b83811015611db5578082015181840152602081019050611d9a565b60008484015250505050565b6000601f19601f8301169050919050565b6000611ddd82611d7b565b611de78185611d86565b9350611df7818560208601611d97565b611e0081611dc1565b840191505092915050565b60006020820190508181036000830152611e258184611dd2565b905092915050565b6000819050919050565b611e4081611e2d565b8114611e4b57600080fd5b50565b600081359050611e5d81611e37565b92915050565b600060208284031215611e7957611e78611cb6565b5b6000611e8784828501611e4e565b91505092915050565b600073ffffffffffffffffffffffffffffffffffffffff82169050919050565b6000611ebb82611e90565b9050919050565b611ecb81611eb0565b82525050565b6000602082019050611ee66000830184611ec2565b92915050565b611ef581611eb0565b8114611f0057600080fd5b50565b600081359050611f1281611eec565b92915050565b60008060408385031215611f2f57611f2e611cb6565b5b6000611f3d85828601611f03565b9250506020611f4e85828601611e4e565b9150509250929050565b600080600060608486031215611f7157611f70611cb6565b5b6000611f7f86828701611f03565b9350506020611f9086828701611f03565b9250506040611fa186828701611e4e565b9150509250925092565b600080fd5b600080fd5b7f4e487b7100000000000000000000000000000000000000000000000000000000600052604160045260246000fd5b611fed82611dc1565b810181811067ffffffffffffffff8211171561200c5761200b611fb5565b5b80604052505050565b600061201f611cac565b905061202b8282611fe4565b919050565b600067ffffffffffffffff82111561204b5761204a611fb5565b5b61205482611dc1565b9050602081019050919050565b82818337600083830152505050565b600061208361207e84612030565b612015565b90508281526020810184848401111561209f5761209e611fb0565b5b6120aa848285612061565b509392505050565b600082601f8301126120c7576120c6611fab565b5b81356120d7848260208601612070565b91505092915050565b6000602082840312156120f6576120f5611cb6565b5b600082013567ffffffffffffffff81111561211457612113611cbb565b5b612120848285016120b2565b91505092915050565b60006020828403121561213f5761213e611cb6565b5b600061214d84828501611f03565b91505092915050565b61215f81611e2d565b82525050565b600060208201905061217a6000830184612156565b92915050565b61218981611d45565b811461219457600080fd5b50565b6000813590506121a681612180565b92915050565b600080604083850312156121c3576121c2611cb6565b5b60006121d185828601611f03565b92505060206121e285828601612197565b9150509250929050565b600067ffffffffffffffff82111561220757612206611fb5565b5b61221082611dc1565b9050602081019050919050565b600061223061222b846121ec565b612015565b90508281526020810184848401111561224c5761224b611fb0565b5b612257848285612061565b509392505050565b600082601f83011261227457612273611fab565b5b813561228484826020860161221d565b91505092915050565b600080600080608085870312156122a7576122a6611cb6565b5b60006122b587828801611f03565b94505060206122c687828801611f03565b93505060406122d787828801611e4e565b925050606085013567ffffffffffffffff8111156122f8576122f7611cbb565b5b6123048782880161225f565b91505092959194509250565b6000806040838503121561232757612326611cb6565b5b600061233585828601611f03565b925050602061234685828601611f03565b9150509250929050565b7f4e487b7100000000000000000000000000000000000000000000000000000000600052602260045260246000fd5b6000600282049050600182168061239757607f821691505b6020821081036123aa576123a9612350565b5b50919050565b60006060820190506123c56000830186611ec2565b6123d26020830185612156565b6123df6040830184611ec2565b949350505050565b7f4e487b7100000000000000000000000000000000000000000000000000000000600052601160045260246000fd5b600061242182611e2d565b91507fffffffffffffffffffffffffffffffffffffffffffffffffffffffffffffffff8203612453576124526123e7565b5b600182019050919050565b600081905092915050565b7f7b226e616d65223a202250726f66696c65204d656d65204e4654202300000000600082015250565b600061249f601c8361245e565b91506124aa82612469565b601c82019050919050565b60006124c082611d7b565b6124ca818561245e565b93506124da818560208601611d97565b80840191505092915050565b7f222c20226465736372697074696f6e223a202250726f66696c65204d656d652060008201527f4e4654222c2022696d616765223a202200000000000000000000000000000000602082015250565b600061254260308361245e565b915061254d826124e6565b603082019050919050565b60008190508160005260206000209050919050565b6000815461257a8161237f565b612584818661245e565b9450600182166000811461259f57600181146125b4576125e7565b60ff19831686528115158202860193506125e7565b6125bd85612558565b60005b838110156125df578154818901526001820191506020810190506125c0565b838801955050505b50505092915050565b7f2e706e67227d0000000000000000000000000000000000000000000000000000600082015250565b600061262660068361245e565b9150612631826125f0565b600682019050919050565b600061264782612492565b915061265382866124b5565b915061265e82612535565b915061266a828561256d565b915061267682846124b5565b915061268182612619565b9150819050949350505050565b7f646174613a6170706c69636174696f6e2f6a736f6e3b6261736536342c000000600082015250565b60006126c4601d8361245e565b91506126cf8261268e565b601d82019050919050565b60006126e5826126b7565b91506126f182846124b5565b915081905092915050565b60006020601f8301049050919050565b600082821b905092915050565b6000600883026127497fffffffffffffffffffffffffffffffffffffffffffffffffffffffffffffffff8261270c565b612753868361270c565b95508019841693508086168417925050509392505050565b6000819050919050565b600061279061278b61278684611e2d565b61276b565b611e2d565b9050919050565b6000819050919050565b6127aa83612775565b6127be6127b682612797565b848454612719565b825550505050565b600090565b6127d36127c6565b6127de8184846127a1565b505050565b5b81811015612802576127f76000826127cb565b6001810190506127e4565b5050565b601f8211156128475761281881612558565b612821846126fc565b81016020851015612830578190505b61284461283c856126fc565b8301826127e3565b50505b505050565b600082821c905092915050565b600061286a6000198460080261284c565b1980831691505092915050565b60006128838383612859565b9150826002028217905092915050565b61289c82611d7b565b67ffffffffffffffff8111156128b5576128b4611fb5565b5b6128bf825461237f565b6128ca828285612806565b600060209050601f8311600181146128fd57600084156128eb578287015190505b6128f58582612877565b86555061295d565b601f19841661290b86612558565b60005b828110156129335784890151825560018201915060208501945060208101905061290e565b86831015612950578489015161294c601f891682612859565b8355505b6001600288020188555050505b505050505050565b7f4e487b7100000000000000000000000000000000000000000000000000000000600052601260045260246000fd5b600061299f82611e2d565b91506129aa83611e2d565b92508282019050808211156129c2576129c16123e7565b5b92915050565b60006129d382611e2d565b91506129de83611e2d565b9250826129ee576129ed612965565b5b828204905092915050565b6000612a0482611e2d565b9150612a0f83611e2d565b9250828202612a1d81611e2d565b91508282048414831517612a3457612a336123e7565b5b5092915050565b600081519050919050565b600082825260208201905092915050565b6000612a6282612a3b565b612a6c8185612a46565b9350612a7c818560208601611d97565b612a8581611dc1565b840191505092915050565b6000608082019050612aa56000830187611ec2565b612ab26020830186611ec2565b612abf6040830185612156565b8181036060830152612ad18184612a57565b905095945050505050565b600081519050612aeb81611cec565b92915050565b600060208284031215612b0757612b06611cb6565b5b6000612b1584828501612adc565b91505092915050565b6000612b2a82856124b5565b9150612b3682846124b5565b91508190509392505050565b6000604082019050612b576000830185611ec2565b612b646020830184612156565b939250505056fe4142434445464748494a4b4c4d4e4f505152535455565758595a6162636465666768696a6b6c6d6e6f707172737475767778797a303132333435363738392b2fa2646970667358221220c6c8501f6363d73977a9a86a2a365b791221b8ceaa0b73bbcc0675c64e28d9d164736f6c63430008180033",
  "linkReferences": {},
  "deployedLinkReferences": {}
}