{
  "_format": "hh-sol-artifact-1",
  "contractName": "ProfileMeme",
  "sourceName": "contracts/ProfileMeme.sol",
  "abi": [
    {
      "inputs": [],
      "stateMutability": "nonpayable",
      "type": "constructor"
    },
    {
      "inputs": [
        {
          "internalType": "address",
          "name": "sender",
          "type": "address"
        },
        {
          "internalType": "uint256",
          "name": "tokenId",
          "type": "uint256"
        },
        {
          "internalType": "address",
          "name": "owner",
          "type": "address"
        }
      ],
      "name": "ERC721IncorrectOwner",
      "type": "error"
    },
    {
      "inputs": [
        {
          "internalType": "address",
          "name": "operator",
          "type": "address"
        },
        {
          "internalType": "uint256",
          "name": "tokenId",
          "type": "uint256"
        }
      ],
      "name": "ERC721InsufficientApproval",
      "type": "error"
    },
    {
      "inputs": [
        {
          "internalType": "address",
          "name": "approver",
          "type": "address"
        }
      ],
      "name": "ERC721InvalidApprover",
      "type": "error"
    },
    {
      "inputs": [
        {
          "internalType": "address",
          "name": "operator",
          "type": "address"
        }
      ],
      "name": "ERC721InvalidOperator",
      "type": "error"
    },
    {
      "inputs": [
        {
          "internalType": "address",
          "name": "owner",
          "type": "address"
        }
      ],
      "name": "ERC721InvalidOwner",
      "type": "error"
    },
    {
      "inputs": [
        {
          "internalType": "address",
          "name": "receiver",
          "type": "address"
        }
      ],
      "name": "ERC721InvalidReceiver",
      "type": "error"
    },
    {
      "inputs": [
        {
          "internalType": "address",
          "name": "sender",
          "type": "address"
        }
      ],
      "name": "ERC721InvalidSender",
      "type": "error"
    },
    {
      "inputs": [
        {
          "internalType": "uint256",
          "name": "tokenId",
          "type": "uint256"
        }
      ],
      "name": "ERC721NonexistentToken",
      "type": "error"
    },
    {
      "inputs": [
        {
          "internalType": "address",
          "name": "owner",
          "type": "address"
        }
      ],
      "name": "OwnableInvalidOwner",
      "type": "error"
    },
    {
      "inputs": [
        {
          "internalType": "address",
          "name": "account",
          "type": "address"
        }
      ],
      "name": "OwnableUnauthorizedAccount",
      "type": "error"
    },
    {
      "anonymous": false,
      "inputs": [
        {
          "indexed": true,
          "internalType": "address",
          "name": "owner",
          "type": "address"
        },
        {
          "indexed": true,
          "internalType": "address",
          "name": "approved",
          "type": "address"
        },
        {
          "indexed": true,
          "internalType": "uint256",
          "name": "tokenId",
          "type": "uint256"
        }
      ],
      "name": "Approval",
      "type": "event"
    },
    {
      "anonymous": false,
      "inputs": [
        {
          "indexed": true,
          "internalType": "address",
          "name": "owner",
          "type": "address"
        },
        {
          "indexed": true,
          "internalType": "address",
          "name": "operator",
          "type": "address"
        },
        {
          "indexed": false,
          "internalType": "bool",
          "name": "approved",
          "type": "bool"
        }
      ],
      "name": "ApprovalForAll",
      "type": "event"
    },
    {
      "anonymous": false,
      "inputs": [
        {
          "indexed": false,
          "internalType": "uint256",
          "name": "_fromTokenId",
          "type": "uint256"
        },
        {
          "indexed": false,
          "internalType": "uint256",
          "name": "_toTokenId",
          "type": "uint256"
        }
      ],
      "name": "BatchMetadataUpdate",
      "type": "event"
    },
    {
      "anonymous": false,
      "inputs": [
        {
          "indexed": false,
          "internalType": "uint256",
          "name": "_tokenId",
          "type": "uint256"
        }
      ],
      "name": "MetadataUpdate",
      "type": "event"
    },
    {
      "anonymous": false,
      "inputs": [
        {
          "indexed": true,
          "internalType": "address",
          "name": "previousOwner",
          "type": "address"
        },
        {
          "indexed": true,
          "internalType": "address",
          "name": "newOwner",
          "type": "address"
        }
      ],
      "name": "OwnershipTransferred",
      "type": "event"
    },
    {
      "anonymous": false,
      "inputs": [
        {
          "indexed": true,
          "internalType": "address",
          "name": "from",
          "type": "address"
        },
        {
          "indexed": true,
          "internalType": "address",
          "name": "to",
          "type": "address"
        },
        {
          "indexed": true,
          "internalType": "uint256",
          "name": "tokenId",
          "type": "uint256"
        }
      ],
      "name": "Transfer",
      "type": "event"
    },
    {
      "inputs": [
        {
          "internalType": "address",
          "name": "to",
          "type": "address"
        },
        {
          "internalType": "uint256",
          "name": "tokenId",
          "type": "uint256"
        }
      ],
      "name": "approve",
      "outputs": [],
      "stateMutability": "nonpayable",
      "type": "function"
    },
    {
      "inputs": [
        {
          "internalType": "address",
          "name": "owner",
          "type": "address"
        }
      ],
      "name": "balanceOf",
      "outputs": [
        {
          "internalType": "uint256",
          "name": "",
          "type": "uint256"
        }
      ],
      "stateMutability": "view",
      "type": "function"
    },
    {
      "inputs": [
        {
          "internalType": "uint256",
          "name": "tokenId",
          "type": "uint256"
        }
      ],
      "name": "burn",
      "outputs": [],
      "stateMutability": "nonpayable",
      "type": "function"
    },
    {
      "inputs": [
        {
          "internalType": "uint256",
          "name": "tokenId",
          "type": "uint256"
        }
      ],
      "name": "getApproved",
      "outputs": [
        {
          "internalType": "address",
          "name": "",
          "type": "address"
        }
      ],
      "stateMutability": "view",
      "type": "function"
    },
    {
      "inputs": [
        {
          "internalType": "address",
          "name": "owner",
          "type": "address"
        },
        {
          "internalType": "address",
          "name": "operator",
          "type": "address"
        }
      ],
      "name": "isApprovedForAll",
      "outputs": [
        {
          "internalType": "bool",
          "name": "",
          "type": "bool"
        }
      ],
      "stateMutability": "view",
      "type": "function"
    },
    {
      "inputs": [],
      "name": "name",
      "outputs": [
        {
          "internalType": "string",
          "name": "",
          "type": "string"
        }
      ],
      "stateMutability": "view",
      "type": "function"
    },
    {
      "inputs": [],
      "name": "owner",
      "outputs": [
        {
          "internalType": "address",
          "name": "",
          "type": "address"
        }
      ],
      "stateMutability": "view",
      "type": "function"
    },
    {
      "inputs": [
        {
          "internalType": "uint256",
          "name": "tokenId",
          "type": "uint256"
        }
      ],
      "name": "ownerOf",
      "outputs": [
        {
          "internalType": "address",
          "name": "",
          "type": "address"
        }
      ],
      "stateMutability": "view",
      "type": "function"
    },
    {
      "inputs": [],
      "name": "renounceOwnership",
      "outputs": [],
      "stateMutability": "nonpayable",
      "type": "function"
    },
    {
      "inputs": [
        {
          "internalType": "string",
          "name": "uri",
          "type": "string"
        }
      ],
      "name": "safeMint",
      "outputs": [],
      "stateMutability": "nonpayable",
      "type": "function"
    },
    {
      "inputs": [
        {
          "internalType": "address",
          "name": "from",
          "type": "address"
        },
        {
          "internalType": "address",
          "name": "to",
          "type": "address"
        },
        {
          "internalType": "uint256",
          "name": "tokenId",
          "type": "uint256"
        }
      ],
      "name": "safeTransferFrom",
      "outputs": [],
      "stateMutability": "nonpayable",
      "type": "function"
    },
    {
      "inputs": [
        {
          "internalType": "address",
          "name": "from",
          "type": "address"
        },
        {
          "internalType": "address",
          "name": "to",
          "type": "address"
        },
        {
          "internalType": "uint256",
          "name": "tokenId",
          "type": "uint256"
        },
        {
          "internalType": "bytes",
          "name": "data",
          "type": "bytes"
        }
      ],
      "name": "safeTransferFrom",
      "outputs": [],
      "stateMutability": "nonpayable",
      "type": "function"
    },
    {
      "inputs": [
        {
          "internalType": "address",
          "name": "operator",
          "type": "address"
        },
        {
          "internalType": "bool",
          "name": "approved",
          "type": "bool"
        }
      ],
      "name": "setApprovalForAll",
      "outputs": [],
      "stateMutability": "nonpayable",
      "type": "function"
    },
    {
      "inputs": [
        {
          "internalType": "bytes4",
          "name": "interfaceId",
          "type": "bytes4"
        }
      ],
      "name": "supportsInterface",
      "outputs": [
        {
          "internalType": "bool",
          "name": "",
          "type": "bool"
        }
      ],
      "stateMutability": "view",
      "type": "function"
    },
    {
      "inputs": [],
      "name": "symbol",
      "outputs": [
        {
          "internalType": "string",
          "name": "",
          "type": "string"
        }
      ],
      "stateMutability": "view",
      "type": "function"
    },
    {
      "inputs": [
        {
          "internalType": "uint256",
          "name": "tokenId",
          "type": "uint256"
        }
      ],
      "name": "tokenURI",
      "outputs": [
        {
          "internalType": "string",
          "name": "",
          "type": "string"
        }
      ],
      "stateMutability": "view",
      "type": "function"
    },
    {
      "inputs": [
        {
          "internalType": "address",
          "name": "from",
          "type": "address"
        },
        {
          "internalType": "address",
          "name": "to",
          "type": "address"
        },
        {
          "internalType": "uint256",
          "name": "tokenId",
          "type": "uint256"
        }
      ],
      "name": "transferFrom",
      "outputs": [],
      "stateMutability": "nonpayable",
      "type": "function"
    },
    {
      "inputs": [
        {
          "internalType": "address",
          "name": "newOwner",
          "type": "address"
        }
      ],
      "name": "transferOwnership",
      "outputs": [],
      "stateMutability": "nonpayable",
      "type": "function"
    }
  ],
  "bytecode": "0x60806040523480156200001157600080fd5b50336040518060400160405280600c81526020017f50726f66696c65204d656d6500000000000000000000000000000000000000008152506040518060400160405280600381526020017f504d4d0000000000000000000000000000000000000000000000000000000000815250816000908162000090919062000472565b508060019081620000a2919062000472565b505050600073ffffffffffffffffffffffffffffffffffffffff168173ffffffffffffffffffffffffffffffffffffffff16036200011a5760006040517f1e4fbdf70000000000000000000000000000000000000000000000000000000081526004016200011191906200059e565b60405180910390fd5b6200012b816200013260201b60201c565b50620005bb565b6000600760009054906101000a900473ffffffffffffffffffffffffffffffffffffffff16905081600760006101000a81548173ffffffffffffffffffffffffffffffffffffffff021916908373ffffffffffffffffffffffffffffffffffffffff1602179055508173ffffffffffffffffffffffffffffffffffffffff168173ffffffffffffffffffffffffffffffffffffffff167f8be0079c531659141344cd1fd0a4f28419497f9722a3daafe3b4186f6b6457e060405160405180910390a35050565b600081519050919050565b7f4e487b7100000000000000000000000000000000000000000000000000000000600052604160045260246000fd5b7f4e487b7100000000000000000000000000000000000000000000000000000000600052602260045260246000fd5b600060028204905060018216806200027a57607f821691505b60208210810362000290576200028f62000232565b5b50919050565b60008190508160005260206000209050919050565b60006020601f8301049050919050565b600082821b905092915050565b600060088302620002fa7fffffffffffffffffffffffffffffffffffffffffffffffffffffffffffffffff82620002bb565b620003068683620002bb565b95508019841693508086168417925050509392505050565b6000819050919050565b6000819050919050565b6000620003536200034d62000347846200031e565b62000328565b6200031e565b9050919050565b6000819050919050565b6200036f8362000332565b620003876200037e826200035a565b848454620002c8565b825550505050565b600090565b6200039e6200038f565b620003ab81848462000364565b505050565b5b81811015620003d357620003c760008262000394565b600181019050620003b1565b5050565b601f8211156200042257620003ec8162000296565b620003f784620002ab565b8101602085101562000407578190505b6200041f6200041685620002ab565b830182620003b0565b50505b505050565b600082821c905092915050565b6000620004476000198460080262000427565b1980831691505092915050565b600062000462838362000434565b9150826002028217905092915050565b6200047d82620001f8565b67ffffffffffffffff81111562000499576200049862000203565b5b620004a5825462000261565b620004b2828285620003d7565b600060209050601f831160018114620004ea5760008415620004d5578287015190505b620004e1858262000454565b86555062000551565b601f198416620004fa8662000296565b60005b828110156200052457848901518255600182019150602085019450602081019050620004fd565b8683101562000544578489015162000540601f89168262000434565b8355505b6001600288020188555050505b505050505050565b600073ffffffffffffffffffffffffffffffffffffffff82169050919050565b6000620005868262000559565b9050919050565b620005988162000579565b82525050565b6000602082019050620005b560008301846200058d565b92915050565b612b3280620005cb6000396000f3fe608060405234801561001057600080fd5b50600436106101165760003560e01c806370a08231116100a2578063a22cb46511610071578063a22cb465146102cb578063b88d4fde146102e7578063c87b56dd14610303578063e985e9c514610333578063f2fde38b1461036357610116565b806370a0823114610255578063715018a6146102855780638da5cb5b1461028f57806395d89b41146102ad57610116565b806323b872dd116100e957806323b872dd146101b557806342842e0e146101d157806342966c68146101ed5780636352211e14610209578063695850fb1461023957610116565b806301ffc9a71461011b57806306fdde031461014b578063081812fc14610169578063095ea7b314610199575b600080fd5b61013560048036038101906101309190611cd3565b61037f565b6040516101429190611d1b565b60405180910390f35b610153610391565b6040516101609190611dc6565b60405180910390f35b610183600480360381019061017e9190611e1e565b610423565b6040516101909190611e8c565b60405180910390f35b6101b360048036038101906101ae9190611ed3565b61043f565b005b6101cf60048036038101906101ca9190611f13565b610455565b005b6101eb60048036038101906101e69190611f13565b610557565b005b61020760048036038101906102029190611e1e565b610577565b005b610223600480360381019061021e9190611e1e565b61058e565b6040516102309190611e8c565b60405180910390f35b610253600480360381019061024e919061209b565b6105a0565b005b61026f600480360381019061026a91906120e4565b610629565b60405161027c9190612120565b60405180910390f35b61028d6106e3565b005b6102976106f7565b6040516102a49190611e8c565b60405180910390f35b6102b5610721565b6040516102c29190611dc6565b60405180910390f35b6102e560048036038101906102e09190612167565b6107b3565b005b61030160048036038101906102fc9190612248565b6107c9565b005b61031d60048036038101906103189190611e1e565b6107e6565b60405161032a9190611dc6565b60405180910390f35b61034d600480360381019061034891906122cb565b6107f8565b60405161035a9190611d1b565b60405180910390f35b61037d600480360381019061037891906120e4565b61088c565b005b600061038a82610912565b9050919050565b6060600080546103a09061233a565b80601f01602080910402602001604051908101604052809291908181526020018280546103cc9061233a565b80156104195780601f106103ee57610100808354040283529160200191610419565b820191906000526020600020905b8154815290600101906020018083116103fc57829003601f168201915b5050505050905090565b600061042e82610973565b50610438826109fb565b9050919050565b610451828261044c610a38565b610a40565b5050565b600073ffffffffffffffffffffffffffffffffffffffff168273ffffffffffffffffffffffffffffffffffffffff16036104c75760006040517f64a0ae920000000000000000000000000000000000000000000000000000000081526004016104be9190611e8c565b60405180910390fd5b60006104db83836104d6610a38565b610a52565b90508373ffffffffffffffffffffffffffffffffffffffff168173ffffffffffffffffffffffffffffffffffffffff1614610551578382826040517f64283d7b0000000000000000000000000000000000000000000000000000000081526004016105489392919061236b565b60405180910390fd5b50505050565b610572838383604051806020016040528060008152506107c9565b505050565b61058a600082610585610a38565b610a52565b5050565b600061059982610973565b9050919050565b6000600860008154809291906105b5906123d1565b91905055905060006105ef6105c983610c6c565b846040516020016105db929190612585565b604051602081830303815290604052610d3a565b6040516020016105ff9190612616565b604051602081830303815290604052905061061a8282610eac565b6106243383610f08565b505050565b60008073ffffffffffffffffffffffffffffffffffffffff168273ffffffffffffffffffffffffffffffffffffffff160361069c5760006040517f89c62b640000000000000000000000000000000000000000000000000000000081526004016106939190611e8c565b60405180910390fd5b600360008373ffffffffffffffffffffffffffffffffffffffff1673ffffffffffffffffffffffffffffffffffffffff168152602001908152602001600020549050919050565b6106eb610f26565b6106f56000610fad565b565b6000600760009054906101000a900473ffffffffffffffffffffffffffffffffffffffff16905090565b6060600180546107309061233a565b80601f016020809104026020016040519081016040528092919081815260200182805461075c9061233a565b80156107a95780601f1061077e576101008083540402835291602001916107a9565b820191906000526020600020905b81548152906001019060200180831161078c57829003601f168201915b5050505050905090565b6107c56107be610a38565b8383611073565b5050565b6107d4848484610455565b6107e0848484846111e2565b50505050565b60606107f182611399565b9050919050565b6000600560008473ffffffffffffffffffffffffffffffffffffffff1673ffffffffffffffffffffffffffffffffffffffff16815260200190815260200160002060008373ffffffffffffffffffffffffffffffffffffffff1673ffffffffffffffffffffffffffffffffffffffff16815260200190815260200160002060009054906101000a900460ff16905092915050565b610894610f26565b600073ffffffffffffffffffffffffffffffffffffffff168173ffffffffffffffffffffffffffffffffffffffff16036109065760006040517f1e4fbdf70000000000000000000000000000000000000000000000000000000081526004016108fd9190611e8c565b60405180910390fd5b61090f81610fad565b50565b6000634906490660e01b7bffffffffffffffffffffffffffffffffffffffffffffffffffffffff1916827bffffffffffffffffffffffffffffffffffffffffffffffffffffffff1916148061096c575061096b826114ac565b5b9050919050565b60008061097f8361158e565b9050600073ffffffffffffffffffffffffffffffffffffffff168173ffffffffffffffffffffffffffffffffffffffff16036109f257826040517f7e2732890000000000000000000000000000000000000000000000000000000081526004016109e99190612120565b60405180910390fd5b80915050919050565b60006004600083815260200190815260200160002060009054906101000a900473ffffffffffffffffffffffffffffffffffffffff169050919050565b600033905090565b610a4d83838360016115cb565b505050565b600080610a5e8461158e565b9050600073ffffffffffffffffffffffffffffffffffffffff168373ffffffffffffffffffffffffffffffffffffffff1614610aa057610a9f818486611790565b5b600073ffffffffffffffffffffffffffffffffffffffff168173ffffffffffffffffffffffffffffffffffffffff1614610b3157610ae26000856000806115cb565b6001600360008373ffffffffffffffffffffffffffffffffffffffff1673ffffffffffffffffffffffffffffffffffffffff168152602001908152602001600020600082825403925050819055505b600073ffffffffffffffffffffffffffffffffffffffff168573ffffffffffffffffffffffffffffffffffffffff1614610bb4576001600360008773ffffffffffffffffffffffffffffffffffffffff1673ffffffffffffffffffffffffffffffffffffffff168152602001908152602001600020600082825401925050819055505b846002600086815260200190815260200160002060006101000a81548173ffffffffffffffffffffffffffffffffffffffff021916908373ffffffffffffffffffffffffffffffffffffffff160217905550838573ffffffffffffffffffffffffffffffffffffffff168273ffffffffffffffffffffffffffffffffffffffff167fddf252ad1be2c89b69c2b068fc378daa952ba7f163c4a11628f55a4df523b3ef60405160405180910390a4809150509392505050565b606060006001610c7b84611854565b01905060008167ffffffffffffffff811115610c9a57610c99611f70565b5b6040519080825280601f01601f191660200182016040528015610ccc5781602001600182028036833780820191505090505b509050600082602001820190505b600115610d2f578080600190039150507f3031323334353637383961626364656600000000000000000000000000000000600a86061a8153600a8581610d2357610d22612638565b5b04945060008503610cda575b819350505050919050565b60606000825103610d5c57604051806020016040528060008152509050610ea7565b6000604051806060016040528060408152602001612abd6040913990506000600360028551610d8b9190612667565b610d95919061269b565b6004610da191906126cc565b67ffffffffffffffff811115610dba57610db9611f70565b5b6040519080825280601f01601f191660200182016040528015610dec5781602001600182028036833780820191505090505b50905060018201602082018586518701602081018051600082525b82841015610e62576003840193508351603f8160121c168701518653600186019550603f81600c1c168701518653600186019550603f8160061c168701518653600186019550603f8116870151865360018601955050610e07565b80825260038a510660018114610e7f5760028114610e9257610e9a565b603d6001870353603d6002870353610e9a565b603d60018703535b5050505050505080925050505b919050565b80600660008481526020019081526020016000209081610ecc91906128ba565b507ff8e1a15aba9398e019f0b49df1a4fde98ee17ae345cb5f6b5e2c27f5033e8ce782604051610efc9190612120565b60405180910390a15050565b610f228282604051806020016040528060008152506119a7565b5050565b610f2e610a38565b73ffffffffffffffffffffffffffffffffffffffff16610f4c6106f7565b73ffffffffffffffffffffffffffffffffffffffff1614610fab57610f6f610a38565b6040517f118cdaa7000000000000000000000000000000000000000000000000000000008152600401610fa29190611e8c565b60405180910390fd5b565b6000600760009054906101000a900473ffffffffffffffffffffffffffffffffffffffff16905081600760006101000a81548173ffffffffffffffffffffffffffffffffffffffff021916908373ffffffffffffffffffffffffffffffffffffffff1602179055508173ffffffffffffffffffffffffffffffffffffffff168173ffffffffffffffffffffffffffffffffffffffff167f8be0079c531659141344cd1fd0a4f28419497f9722a3daafe3b4186f6b6457e060405160405180910390a35050565b600073ffffffffffffffffffffffffffffffffffffffff168273ffffffffffffffffffffffffffffffffffffffff16036110e457816040517f5b08ba180000000000000000000000000000000000000000000000000000000081526004016110db9190611e8c565b60405180910390fd5b80600560008573ffffffffffffffffffffffffffffffffffffffff1673ffffffffffffffffffffffffffffffffffffffff16815260200190815260200160002060008473ffffffffffffffffffffffffffffffffffffffff1673ffffffffffffffffffffffffffffffffffffffff16815260200190815260200160002060006101000a81548160ff0219169083151502179055508173ffffffffffffffffffffffffffffffffffffffff168373ffffffffffffffffffffffffffffffffffffffff167f17307eab39ab6107e8899845ad3d59bd9653f200f220920489ca2b5937696c31836040516111d59190611d1b565b60405180910390a3505050565b60008373ffffffffffffffffffffffffffffffffffffffff163b1115611393578273ffffffffffffffffffffffffffffffffffffffff1663150b7a02611226610a38565b8685856040518563ffffffff1660e01b815260040161124894939291906129e1565b6020604051808303816000875af192505050801561128457506040513d601f19601f820116820180604052508101906112819190612a42565b60015b611308573d80600081146112b4576040519150601f19603f3d011682016040523d82523d6000602084013e6112b9565b606091505b50600081510361130057836040517f64a0ae920000000000000000000000000000000000000000000000000000000081526004016112f79190611e8c565b60405180910390fd5b805181602001fd5b63150b7a0260e01b7bffffffffffffffffffffffffffffffffffffffffffffffffffffffff1916817bffffffffffffffffffffffffffffffffffffffffffffffffffffffff19161461139157836040517f64a0ae920000000000000000000000000000000000000000000000000000000081526004016113889190611e8c565b60405180910390fd5b505b50505050565b60606113a482610973565b5060006006600084815260200190815260200160002080546113c59061233a565b80601f01602080910402602001604051908101604052809291908181526020018280546113f19061233a565b801561143e5780601f106114135761010080835404028352916020019161143e565b820191906000526020600020905b81548152906001019060200180831161142157829003601f168201915b50505050509050600061144f6119c3565b905060008151036114645781925050506114a7565b600082511115611499578082604051602001611481929190612a6f565b604051602081830303815290604052925050506114a7565b6114a2846119da565b925050505b919050565b60007f80ac58cd000000000000000000000000000000000000000000000000000000007bffffffffffffffffffffffffffffffffffffffffffffffffffffffff1916827bffffffffffffffffffffffffffffffffffffffffffffffffffffffff1916148061157757507f5b5e139f000000000000000000000000000000000000000000000000000000007bffffffffffffffffffffffffffffffffffffffffffffffffffffffff1916827bffffffffffffffffffffffffffffffffffffffffffffffffffffffff1916145b80611587575061158682611a43565b5b9050919050565b60006002600083815260200190815260200160002060009054906101000a900473ffffffffffffffffffffffffffffffffffffffff169050919050565b80806116045750600073ffffffffffffffffffffffffffffffffffffffff168273ffffffffffffffffffffffffffffffffffffffff1614155b1561173857600061161484610973565b9050600073ffffffffffffffffffffffffffffffffffffffff168373ffffffffffffffffffffffffffffffffffffffff161415801561167f57508273ffffffffffffffffffffffffffffffffffffffff168173ffffffffffffffffffffffffffffffffffffffff1614155b8015611692575061169081846107f8565b155b156116d457826040517fa9fbf51f0000000000000000000000000000000000000000000000000000000081526004016116cb9190611e8c565b60405180910390fd5b811561173657838573ffffffffffffffffffffffffffffffffffffffff168273ffffffffffffffffffffffffffffffffffffffff167f8c5be1e5ebec7d5bd14f71427d1e84f3dd0314c0f7b2291e5b200ac8c7c3b92560405160405180910390a45b505b836004600085815260200190815260200160002060006101000a81548173ffffffffffffffffffffffffffffffffffffffff021916908373ffffffffffffffffffffffffffffffffffffffff16021790555050505050565b61179b838383611aad565b61184f57600073ffffffffffffffffffffffffffffffffffffffff168373ffffffffffffffffffffffffffffffffffffffff160361181057806040517f7e2732890000000000000000000000000000000000000000000000000000000081526004016118079190612120565b60405180910390fd5b81816040517f177e802f000000000000000000000000000000000000000000000000000000008152600401611846929190612a93565b60405180910390fd5b505050565b600080600090507a184f03e93ff9f4daa797ed6e38ed64bf6a1f01000000000000000083106118b2577a184f03e93ff9f4daa797ed6e38ed64bf6a1f01000000000000000083816118a8576118a7612638565b5b0492506040810190505b6d04ee2d6d415b85acef810000000083106118ef576d04ee2d6d415b85acef810000000083816118e5576118e4612638565b5b0492506020810190505b662386f26fc10000831061191e57662386f26fc10000838161191457611913612638565b5b0492506010810190505b6305f5e1008310611947576305f5e100838161193d5761193c612638565b5b0492506008810190505b612710831061196c57612710838161196257611961612638565b5b0492506004810190505b6064831061198f576064838161198557611984612638565b5b0492506002810190505b600a831061199e576001810190505b80915050919050565b6119b18383611b6e565b6119be60008484846111e2565b505050565b606060405180602001604052806000815250905090565b60606119e582610973565b5060006119f06119c3565b90506000815111611a105760405180602001604052806000815250611a3b565b80611a1a84610c6c565b604051602001611a2b929190612a6f565b6040516020818303038152906040525b915050919050565b60007f01ffc9a7000000000000000000000000000000000000000000000000000000007bffffffffffffffffffffffffffffffffffffffffffffffffffffffff1916827bffffffffffffffffffffffffffffffffffffffffffffffffffffffff1916149050919050565b60008073ffffffffffffffffffffffffffffffffffffffff168373ffffffffffffffffffffffffffffffffffffffff1614158015611b6557508273ffffffffffffffffffffffffffffffffffffffff168473ffffffffffffffffffffffffffffffffffffffff161480611b265750611b2584846107f8565b5b80611b6457508273ffffffffffffffffffffffffffffffffffffffff16611b4c836109fb565b73ffffffffffffffffffffffffffffffffffffffff16145b5b90509392505050565b600073ffffffffffffffffffffffffffffffffffffffff168273ffffffffffffffffffffffffffffffffffffffff1603611be05760006040517f64a0ae92000000000000000000000000000000000000000000000000000000008152600401611bd79190611e8c565b60405180910390fd5b6000611bee83836000610a52565b9050600073ffffffffffffffffffffffffffffffffffffffff168173ffffffffffffffffffffffffffffffffffffffff1614611c625760006040517f73c6ac6e000000000000000000000000000000000000000000000000000000008152600401611c599190611e8c565b60405180910390fd5b505050565b6000604051905090565b600080fd5b600080fd5b60007fffffffff0000000000000000000000000000000000000000000000000000000082169050919050565b611cb081611c7b565b8114611cbb57600080fd5b50565b600081359050611ccd81611ca7565b92915050565b600060208284031215611ce957611ce8611c71565b5b6000611cf784828501611cbe565b91505092915050565b60008115159050919050565b611d1581611d00565b82525050565b6000602082019050611d306000830184611d0c565b92915050565b600081519050919050565b600082825260208201905092915050565b60005b83811015611d70578082015181840152602081019050611d55565b60008484015250505050565b6000601f19601f8301169050919050565b6000611d9882611d36565b611da28185611d41565b9350611db2818560208601611d52565b611dbb81611d7c565b840191505092915050565b60006020820190508181036000830152611de08184611d8d565b905092915050565b6000819050919050565b611dfb81611de8565b8114611e0657600080fd5b50565b600081359050611e1881611df2565b92915050565b600060208284031215611e3457611e33611c71565b5b6000611e4284828501611e09565b91505092915050565b600073ffffffffffffffffffffffffffffffffffffffff82169050919050565b6000611e7682611e4b565b9050919050565b611e8681611e6b565b82525050565b6000602082019050611ea16000830184611e7d565b92915050565b611eb081611e6b565b8114611ebb57600080fd5b50565b600081359050611ecd81611ea7565b92915050565b60008060408385031215611eea57611ee9611c71565b5b6000611ef885828601611ebe565b9250506020611f0985828601611e09565b9150509250929050565b600080600060608486031215611f2c57611f2b611c71565b5b6000611f3a86828701611ebe565b9350506020611f4b86828701611ebe565b9250506040611f5c86828701611e09565b9150509250925092565b600080fd5b600080fd5b7f4e487b7100000000000000000000000000000000000000000000000000000000600052604160045260246000fd5b611fa882611d7c565b810181811067ffffffffffffffff82111715611fc757611fc6611f70565b5b80604052505050565b6000611fda611c67565b9050611fe68282611f9f565b919050565b600067ffffffffffffffff82111561200657612005611f70565b5b61200f82611d7c565b9050602081019050919050565b82818337600083830152505050565b600061203e61203984611feb565b611fd0565b90508281526020810184848401111561205a57612059611f6b565b5b61206584828561201c565b509392505050565b600082601f83011261208257612081611f66565b5b813561209284826020860161202b565b91505092915050565b6000602082840312156120b1576120b0611c71565b5b600082013567ffffffffffffffff8111156120cf576120ce611c76565b5b6120db8482850161206d565b91505092915050565b6000602082840312156120fa576120f9611c71565b5b600061210884828501611ebe565b91505092915050565b61211a81611de8565b82525050565b60006020820190506121356000830184612111565b92915050565b61214481611d00565b811461214f57600080fd5b50565b6000813590506121618161213b565b92915050565b6000806040838503121561217e5761217d611c71565b5b600061218c85828601611ebe565b925050602061219d85828601612152565b9150509250929050565b600067ffffffffffffffff8211156121c2576121c1611f70565b5b6121cb82611d7c565b9050602081019050919050565b60006121eb6121e6846121a7565b611fd0565b90508281526020810184848401111561220757612206611f6b565b5b61221284828561201c565b509392505050565b600082601f83011261222f5761222e611f66565b5b813561223f8482602086016121d8565b91505092915050565b6000806000806080858703121561226257612261611c71565b5b600061227087828801611ebe565b945050602061228187828801611ebe565b935050604061229287828801611e09565b925050606085013567ffffffffffffffff8111156122b3576122b2611c76565b5b6122bf8782880161221a565b91505092959194509250565b600080604083850312156122e2576122e1611c71565b5b60006122f085828601611ebe565b925050602061230185828601611ebe565b9150509250929050565b7f4e487b7100000000000000000000000000000000000000000000000000000000600052602260045260246000fd5b6000600282049050600182168061235257607f821691505b6020821081036123655761236461230b565b5b50919050565b60006060820190506123806000830186611e7d565b61238d6020830185612111565b61239a6040830184611e7d565b949350505050565b7f4e487b7100000000000000000000000000000000000000000000000000000000600052601160045260246000fd5b60006123dc82611de8565b91507fffffffffffffffffffffffffffffffffffffffffffffffffffffffffffffffff820361240e5761240d6123a2565b5b600182019050919050565b600081905092915050565b7f7b226e616d65223a202250726f66696c65204d656d65204e4654202300000000600082015250565b600061245a601c83612419565b915061246582612424565b601c82019050919050565b600061247b82611d36565b6124858185612419565b9350612495818560208601611d52565b80840191505092915050565b7f222c20226465736372697074696f6e223a202250726f66696c65204d656d652060008201527f4e4654222c2022696d616765223a202268747470733a2f2f7265732e636c6f7560208201527f64696e6172792e636f6d2f647477686f747079632f0000000000000000000000604082015250565b6000612523605583612419565b915061252e826124a1565b605582019050919050565b7f2e706e67227d0000000000000000000000000000000000000000000000000000600082015250565b600061256f600683612419565b915061257a82612539565b600682019050919050565b60006125908261244d565b915061259c8285612470565b91506125a782612516565b91506125b38284612470565b91506125be82612562565b91508190509392505050565b7f646174613a6170706c69636174696f6e2f6a736f6e3b6261736536342c000000600082015250565b6000612600601d83612419565b915061260b826125ca565b601d82019050919050565b6000612621826125f3565b915061262d8284612470565b915081905092915050565b7f4e487b7100000000000000000000000000000000000000000000000000000000600052601260045260246000fd5b600061267282611de8565b915061267d83611de8565b9250828201905080821115612695576126946123a2565b5b92915050565b60006126a682611de8565b91506126b183611de8565b9250826126c1576126c0612638565b5b828204905092915050565b60006126d782611de8565b91506126e283611de8565b92508282026126f081611de8565b91508282048414831517612707576127066123a2565b5b5092915050565b60008190508160005260206000209050919050565b60006020601f8301049050919050565b600082821b905092915050565b6000600883026127707fffffffffffffffffffffffffffffffffffffffffffffffffffffffffffffffff82612733565b61277a8683612733565b95508019841693508086168417925050509392505050565b6000819050919050565b60006127b76127b26127ad84611de8565b612792565b611de8565b9050919050565b6000819050919050565b6127d18361279c565b6127e56127dd826127be565b848454612740565b825550505050565b600090565b6127fa6127ed565b6128058184846127c8565b505050565b5b818110156128295761281e6000826127f2565b60018101905061280b565b5050565b601f82111561286e5761283f8161270e565b61284884612723565b81016020851015612857578190505b61286b61286385612723565b83018261280a565b50505b505050565b600082821c905092915050565b600061289160001984600802612873565b1980831691505092915050565b60006128aa8383612880565b9150826002028217905092915050565b6128c382611d36565b67ffffffffffffffff8111156128dc576128db611f70565b5b6128e6825461233a565b6128f182828561282d565b600060209050601f8311600181146129245760008415612912578287015190505b61291c858261289e565b865550612984565b601f1984166129328661270e565b60005b8281101561295a57848901518255600182019150602085019450602081019050612935565b868310156129775784890151612973601f891682612880565b8355505b6001600288020188555050505b505050505050565b600081519050919050565b600082825260208201905092915050565b60006129b38261298c565b6129bd8185612997565b93506129cd818560208601611d52565b6129d681611d7c565b840191505092915050565b60006080820190506129f66000830187611e7d565b612a036020830186611e7d565b612a106040830185612111565b8181036060830152612a2281846129a8565b905095945050505050565b600081519050612a3c81611ca7565b92915050565b600060208284031215612a5857612a57611c71565b5b6000612a6684828501612a2d565b91505092915050565b6000612a7b8285612470565b9150612a878284612470565b91508190509392505050565b6000604082019050612aa86000830185611e7d565b612ab56020830184612111565b939250505056fe4142434445464748494a4b4c4d4e4f505152535455565758595a6162636465666768696a6b6c6d6e6f707172737475767778797a303132333435363738392b2fa2646970667358221220e9bc603164bfeaa1cf25fe03b5e457d93526621ca337fc171cae6f7b422e778464736f6c63430008180033",
  "linkReferences": {},
  "deployedLinkReferences": {}
}